{
  "_format": "hh-sol-artifact-1",
  "contractName": "Layer",
  "sourceName": "contracts/Layer.sol",
  "abi": [
    {
      "inputs": [],
      "name": "executeLayer",
      "outputs": [],
      "stateMutability": "nonpayable",
      "type": "function"
    },
    {
      "inputs": [
        {
          "internalType": "address",
          "name": "_walletAddr",
          "type": "address"
        }
      ],
      "name": "setWalletAddress",
      "outputs": [],
      "stateMutability": "nonpayable",
      "type": "function"
    }
  ],
  "bytecode": "0x608060405234801561001057600080fd5b50610302806100206000396000f3fe608060405234801561001057600080fd5b50600436106100365760003560e01c8063874cd8a71461003b578063ac1a386a14610045575b600080fd5b610043610061565b005b61005f600480360381019061005a9190610222565b6100fa565b005b600073ffffffffffffffffffffffffffffffffffffffff1660008054906101000a900473ffffffffffffffffffffffffffffffffffffffff1673ffffffffffffffffffffffffffffffffffffffff16036100f0576040517f08c379a00000000000000000000000000000000000000000000000000000000081526004016100e7906102ac565b60405180910390fd5b6100f861013d565b565b806000806101000a81548173ffffffffffffffffffffffffffffffffffffffff021916908373ffffffffffffffffffffffffffffffffffffffff16021790555050565b60008054906101000a900473ffffffffffffffffffffffffffffffffffffffff1673ffffffffffffffffffffffffffffffffffffffff1663f14b60f26040518163ffffffff1660e01b8152600401600060405180830381600087803b1580156101a557600080fd5b505af11580156101b9573d6000803e3d6000fd5b50505050565b600080fd5b600073ffffffffffffffffffffffffffffffffffffffff82169050919050565b60006101ef826101c4565b9050919050565b6101ff816101e4565b811461020a57600080fd5b50565b60008135905061021c816101f6565b92915050565b600060208284031215610238576102376101bf565b5b60006102468482850161020d565b91505092915050565b600082825260208201905092915050565b7f77616c6c657441646472206973206e6f74207365740000000000000000000000600082015250565b600061029660158361024f565b91506102a182610260565b602082019050919050565b600060208201905081810360008301526102c581610289565b905091905056fea2646970667358221220ab74ef691d33c9b543a0dab202f13292e14373ce516adedd5ab18e5c50c1a3bd64736f6c63430008110033",
  "linkReferences": {},
  "deployedLinkReferences": {}
}