{
  "_format": "hh-sol-artifact-1",
  "contractName": "Wallet",
  "sourceName": "contracts/Wallet.sol",
  "abi": [
    {
      "anonymous": false,
      "inputs": [],
      "name": "HandleLayerStartedEV",
      "type": "event"
    },
    {
      "inputs": [],
      "name": "handleLayerFailure",
      "outputs": [],
      "stateMutability": "nonpayable",
      "type": "function"
    },
    {
      "inputs": [],
      "name": "handleLayerStarted",
      "outputs": [],
      "stateMutability": "nonpayable",
      "type": "function"
    },
    {
      "inputs": [],
      "name": "handleLayerSuccess",
      "outputs": [],
      "stateMutability": "nonpayable",
      "type": "function"
    },
    {
      "inputs": [
        {
          "internalType": "address",
          "name": "_layerAddr",
          "type": "address"
        }
      ],
      "name": "setLayerAddress",
      "outputs": [],
      "stateMutability": "nonpayable",
      "type": "function"
    },
    {
      "inputs": [],
      "name": "test",
      "outputs": [],
      "stateMutability": "nonpayable",
      "type": "function"
    }
  ],
  "bytecode": "0x608060405234801561001057600080fd5b50610369806100206000396000f3fe608060405234801561001057600080fd5b50600436106100575760003560e01c80632902e2761461005c578063a21f30cc14610066578063f14b60f214610070578063f8a8fd6d1461007a578063fb83287b14610084575b600080fd5b6100646100a0565b005b61006e6100a2565b005b6100786100a4565b005b6100826100d2565b005b61009e60048036038101906100999190610289565b6101e3565b005b565b565b7f9c95e4df7afae73945c5552fb375f3d5e749d806615e86042eae016f981736b460405160405180910390a1565b600073ffffffffffffffffffffffffffffffffffffffff1660008054906101000a900473ffffffffffffffffffffffffffffffffffffffff1673ffffffffffffffffffffffffffffffffffffffff1603610161576040517f08c379a000000000000000000000000000000000000000000000000000000000815260040161015890610313565b60405180910390fd5b60008054906101000a900473ffffffffffffffffffffffffffffffffffffffff1673ffffffffffffffffffffffffffffffffffffffff1663874cd8a76040518163ffffffff1660e01b8152600401600060405180830381600087803b1580156101c957600080fd5b505af11580156101dd573d6000803e3d6000fd5b50505050565b806000806101000a81548173ffffffffffffffffffffffffffffffffffffffff021916908373ffffffffffffffffffffffffffffffffffffffff16021790555050565b600080fd5b600073ffffffffffffffffffffffffffffffffffffffff82169050919050565b60006102568261022b565b9050919050565b6102668161024b565b811461027157600080fd5b50565b6000813590506102838161025d565b92915050565b60006020828403121561029f5761029e610226565b5b60006102ad84828501610274565b91505092915050565b600082825260208201905092915050565b7f6c6179657241646472206973206e6f7420736574000000000000000000000000600082015250565b60006102fd6014836102b6565b9150610308826102c7565b602082019050919050565b6000602082019050818103600083015261032c816102f0565b905091905056fea26469706673582212204cbd14a91fe6906e10cd9615615e7449aeb3bd0c55ab606a11b368e21d4161e864736f6c63430008110033",
  "linkReferences": {},
  "deployedLinkReferences": {}
}